{
  "address": "0xAA76f3AC506da12D6114F127eEbBa57A0dEe11C1",
  "abi": [
    {
      "inputs": [],
      "name": "counter",
      "outputs": [
        {
          "internalType": "uint256",
          "name": "",
          "type": "uint256"
        }
      ],
      "stateMutability": "view",
      "type": "function"
    },
    {
      "inputs": [],
      "name": "decrement",
      "outputs": [],
      "stateMutability": "nonpayable",
      "type": "function"
    },
    {
      "inputs": [],
      "name": "increment",
      "outputs": [],
      "stateMutability": "nonpayable",
      "type": "function"
    }
  ],
  "transactionHash": "0x4aae699e0140b3d5f561ce2d9e411359799b85241ef5b55f852b921d5298666f",
  "args": [],
  "numDeployments": 1,
  "solcInputHash": "450cd93c3e5ab1b524e7a1ced844ccda",
  "bytecode": "0x6080604052348015600f57600080fd5b5061027b8061001f6000396000f3fe608060405234801561001057600080fd5b50600436106100415760003560e01c80632baeceb71461004657806361bc221a14610050578063d09de08a1461006e575b600080fd5b61004e610078565b005b6100586100d5565b604051610065919061010d565b60405180910390f35b6100766100db565b005b60008054116100bc576040517f08c379a00000000000000000000000000000000000000000000000000000000081526004016100b390610185565b60405180910390fd5b6000808154809291906100ce906101d4565b9190505550565b60005481565b6000808154809291906100ed906101fd565b9190505550565b6000819050919050565b610107816100f4565b82525050565b600060208201905061012260008301846100fe565b92915050565b600082825260208201905092915050565b7f436f756e746572206973207a65726f0000000000000000000000000000000000600082015250565b600061016f600f83610128565b915061017a82610139565b602082019050919050565b6000602082019050818103600083015261019e81610162565b9050919050565b7f4e487b7100000000000000000000000000000000000000000000000000000000600052601160045260246000fd5b60006101df826100f4565b9150600082036101f2576101f16101a5565b5b600182039050919050565b6000610208826100f4565b91507fffffffffffffffffffffffffffffffffffffffffffffffffffffffffffffffff820361023a576102396101a5565b5b60018201905091905056fea2646970667358221220a567a6c078f205cd1e0d37335c8ef79af3aa71eb37a319568683de4470cf6efb64736f6c634300081c0033",
  "devdoc": {
    "kind": "dev",
    "methods": {},
    "version": 1
  },
  "userdoc": {
    "kind": "user",
    "methods": {},
    "version": 1
  },
  "storageLayout": {
    "storage": [
      {
        "astId": 7075,
        "contract": "contracts/ContractD.sol:ContractD",
        "label": "counter",
        "offset": 0,
        "slot": "0",
        "type": "t_uint256"
      }
    ],
    "types": {
      "t_uint256": {
        "encoding": "inplace",
        "label": "uint256",
        "numberOfBytes": "32"
      }
    }
  }
}