{
  "address": "0x3c59266e486c73c0193cAFFC626599a4eF44631A",
  "abi": [
    {
      "inputs": [],
      "stateMutability": "nonpayable",
      "type": "constructor"
    },
    {
      "inputs": [],
      "name": "owner",
      "outputs": [
        {
          "internalType": "address",
          "name": "",
          "type": "address"
        }
      ],
      "stateMutability": "view",
      "type": "function"
    },
    {
      "inputs": [
        {
          "internalType": "address payable",
          "name": "to",
          "type": "address"
        },
        {
          "internalType": "uint256",
          "name": "amount",
          "type": "uint256"
        }
      ],
      "name": "withdraw",
      "outputs": [],
      "stateMutability": "nonpayable",
      "type": "function"
    },
    {
      "stateMutability": "payable",
      "type": "receive"
    }
  ],
  "transactionHash": "0x6edf9e0dd1ff50685906593aa74597e06796b35d5c275ceeb886880bb44f8297",
  "args": [],
  "numDeployments": 1,
  "solcInputHash": "450cd93c3e5ab1b524e7a1ced844ccda",
  "bytecode": "0x6080604052348015600f57600080fd5b50336000806101000a81548173ffffffffffffffffffffffffffffffffffffffff021916908373ffffffffffffffffffffffffffffffffffffffff1602179055506104018061005f6000396000f3fe60806040526004361061002d5760003560e01c80638da5cb5b14610039578063f3fef3a31461006457610034565b3661003457005b600080fd5b34801561004557600080fd5b5061004e61008d565b60405161005b919061020e565b60405180910390f35b34801561007057600080fd5b5061008b600480360381019061008691906102a2565b6100b1565b005b60008054906101000a900473ffffffffffffffffffffffffffffffffffffffff1681565b60008054906101000a900473ffffffffffffffffffffffffffffffffffffffff1673ffffffffffffffffffffffffffffffffffffffff163373ffffffffffffffffffffffffffffffffffffffff161461013f576040517f08c379a00000000000000000000000000000000000000000000000000000000081526004016101369061033f565b60405180910390fd5b80471015610182576040517f08c379a0000000000000000000000000000000000000000000000000000000008152600401610179906103ab565b60405180910390fd5b8173ffffffffffffffffffffffffffffffffffffffff166108fc829081150290604051600060405180830381858888f193505050501580156101c8573d6000803e3d6000fd5b505050565b600073ffffffffffffffffffffffffffffffffffffffff82169050919050565b60006101f8826101cd565b9050919050565b610208816101ed565b82525050565b600060208201905061022360008301846101ff565b92915050565b600080fd5b6000610239826101cd565b9050919050565b6102498161022e565b811461025457600080fd5b50565b60008135905061026681610240565b92915050565b6000819050919050565b61027f8161026c565b811461028a57600080fd5b50565b60008135905061029c81610276565b92915050565b600080604083850312156102b9576102b8610229565b5b60006102c785828601610257565b92505060206102d88582860161028d565b9150509250929050565b600082825260208201905092915050565b7f4e6f74206f776e65720000000000000000000000000000000000000000000000600082015250565b60006103296009836102e2565b9150610334826102f3565b602082019050919050565b600060208201905081810360008301526103588161031c565b9050919050565b7f496e73756666696369656e742062616c616e6365000000000000000000000000600082015250565b60006103956014836102e2565b91506103a08261035f565b602082019050919050565b600060208201905081810360008301526103c481610388565b905091905056fea2646970667358221220dd6a21aae2cb1edcd9578aee7dba8f6f1c733a6d55919549b44a8e7d9a1284ae64736f6c634300081c0033",
  "devdoc": {
    "kind": "dev",
    "methods": {},
    "version": 1
  },
  "userdoc": {
    "kind": "user",
    "methods": {},
    "version": 1
  },
  "storageLayout": {
    "storage": [
      {
        "astId": 7101,
        "contract": "contracts/ContractE.sol:ContractE",
        "label": "owner",
        "offset": 0,
        "slot": "0",
        "type": "t_address"
      }
    ],
    "types": {
      "t_address": {
        "encoding": "inplace",
        "label": "address",
        "numberOfBytes": "20"
      }
    }
  }
}